:400000000080002011000000B9040000B904000008B5044B1A6803F53F5302331A6000F04DFA00BFFA46004010B5054C237833B9044B13B10448AFF300800123237010BDB6
:40004000E080FF1F0000000048200000084B10B51BB108490848AFF300800848036803B910BD074B002BFBD0BDE81040184700BF00000000E480FF1F48200000C880FF1F04
:400080000000000010B4CA1C054B98548A1C040A9C544A1C040C9C54000E585410BC7047FC80FF1F08B500F0DBF808BD10B5044601F068FD1CB140F00100C0B201E000F08E
:4000C000FE0001F059FD10BD08B562B6064901F14002064800F096F800F092FA0120FFF7E5FF00F0A1F8FCE7FC80FF1F0D01000010B5044601F046FD1CB140F00200C0B28B
:4001000001E000F0FD0001F037FD10BD10B5314B93F84030042B50D8DFE803F00314243F4C002C4BD3F8410001F034FFC0B22A4B187018B90120FFF7B9FF3EE00020FFF702
:40014000B5FF3AE0234BD3F8410001F023FFC0B2214B587010B9FFF7CBFF2EE00120FFF7C7FF2AE01B4BD3F841404FF08041204601F006FF38B1204601F00CFF0238154B0D
:40018000C3F8800003E00522124BC3F88020114BD3F8800000F000FA0FE00E4BD3F841100E4801F0E5FD01F0F5FE012180B200F049FA02E0012000F031FA402200210548CB
:4001C00001F039FF00210020FFF75CFF00F03EF810BD00BFFC80FF1FCC80FF1F0050C34708B5012000F0E0FB012807D14022044B196800F0F7FB022000F03EFC08BD00BFA6
:400200008081FF1F70B506460D4614460121002000F080FB034B5E601D609C60022000F02BFC70BD8081FF1F08B500F0B7FB40B1054B1B7B2BB9022000F01EFC0122024B14
:400240001A73FFF7CDFF08BD8081FF1F08B54022024B1968012000F0C5FB08BD8081FF1F10B5022000F0A0FB01280DD1022000F0A5FB064CC2B2A168022000F013FC02206C
:4002800000F0FAFB6368984710BD00BF8081FF1FFEE700BFF0B40022174611E050F82760F3B226F0FF0608E001EB420511F812406D78A5550132013BDBB2002BF4D1013744
:4002C000112FEBD9F0BC7047064B1B78DBB203F00701054A11701B09013213704422034B1A707047CF0100496E5800407658004008B50A46002101F09EFE08BD38B540F2C0
:40030000F312244B1A801B2202331A70062203F27E231A705222A3F580731A701E4B1B78DBB21E4A13704FF4E1621D4B1A8041F25122023B1A80002419250CE0194B1B7824
:4003400003F0010343EA440404F003044FF4F07001F01EFC013D0DB1032CEFD115B90320FFF796FF104A4FF4807313800723137000230E490B70482002310870137005326F
:40038000137002220A4B1A700A4A137843F00103137038BD804000400F010049A14600402242004025420040044000400640004001400040A243004008B501F031FE08BD0C
:4003C00038B572B62C4A137843F00403137000240CE02A4D630019194A0011462A44084691882858FFF784FF0134E4B2072CF0D923494FF09040FFF74DFF224A137843F0F1
:40040000020313701032137843F0020313701E4C237843F040032370A2F58632513A137843F010031370082218491948FFF7C4FF0A2218491848FFF7BFFF08221749184840
:40044000FFF7BAFF0A2217491748FFF7B5FF174A137843F008031370154D61232B70FFF74DFF81232B70FFF72FFF0E2221461148FFF7A2FF38BD00BFE84600404C20000050
:400480004800004803500140A0430040480200480251004050020048F05100405C0200481251004064020048305100402243004000480040B0430040FEE700BF08B5104EDE
:4004C000104D16E029686B68AC68002204E051F8040B43F8040B0432A242F8D1E868002203E0002143F8041B04328242F9D11035013E002EE6D101F06DFDFFF7E5FDFEE791
:40050000010000003822000008B5104A104B1A60104A136843F40073136000230AE0032B03D80D4A52F8231000E00C490C4A42F8231001332F2BF2D90A4B1A780A4B1A7081
:40054000074A0A4B1A60FFF73BFF08BD0004FA050CED00E014ED00E000000000B90400000080FF1FBC760040C080FF1F08ED00E0024A137843F080031370704777650040C6
:40058000014B1870704700BF87650040014B1878704700BF67650040014B1860704700BF24650040014B1868704700BF44650040014B1860704700BF0465004008B501E0B8
:4005C000FFF7F0FFFFF7E2FF10F0080FF8D108BD08B5C520FFF7E0FFC520FFF7E9FF01F0DFFA064A137843F01003137001F0DCFAFFF7E4FF0020FFF7C3FF08BD9765004079
:4006000008B5054B1B7823B9FFF7E2FF0122024B1A70FFF7ADFF08BD8D81FF1F014B1870704700BF74650040014B188880B2704780400040024B187800F00700704700BF58
:400640008240004070B505460E46FFF7F3FF0446FFF7EAFFA84256D02B4B1B7803F0010294B900B185B938B9284B1D80284A137803F0BF03137070BD254A137843F0400385
:400680001370224B1D8070BD22B3002321490B7001240F310C7004310B700C390B7803F07F030B701A4B1B7813F0080F00D08DB9194B18800721013B1970164B1B7813F052
:4006C000010FFAD110490B7803F0FE030B700021104B19700C4B1B7813F0010F0DD00E4B1D800EB1032200E001220A4B1A70094B1B7813F0010FFAD170BD044B1D80024910
:400700000B7813430B7070BDA243004080400040824000400140004002400040F8B501F03FFA06463C4A137843F0010313701032137843F0010313700125384B1D7002273A
:40074000943B1F7002F5E2521B32137803F07F031370002001F0DAF9314C237803F0F9032370304A137803F0DF03137023782B432370284601F0CAF9282001F0C7F92A4B19
:400780001A7802F07F021A701A7802F0BF021A7023783B432370384601F0B8F9237843F0040323700024214B1C7001331C70304601F0FAF90721172001F0C6F91C491720C6
:4007C00001F0AEF90721182001F0BEF91949182001F0A6F90721152001F0B6F91649152001F09EF90721204601F0AEF91349204601F096F90721284601F0A6F910492846C1
:4008000001F08EF907210C2001F09EF90D490C2001F086F9F8BD00BFA54300409D6000409443004012600040F851004084600040D50F0000F50D0000D10F0000690F0000E5
:40084000990F00006D12000010B5002304E00124234AD4542344DBB2002BF8D0214B18700023214A1370214A1370214A1370214A1370214A1370214A1370214A1370214BDF
:400880004FF400021A604FF080721A604FF400121A6001221A6002221A6011B1012906D00BE0194A137803F0FE0313700AE0164A137843F00103137004E0134A137843F024
:4008C000010313700322114B1A708022203B1A70012001F05DF904220D4B1A7010BD00BF3482FF1FA881FF1FAE81FF1FAC81FF1FAD81FF1FA981FF1F9481FF1FAB81FF1F1F
:400900002482FF1F00E100E009600040286000401260004038B504460D46064B1B7823B9FFF7FCFE0122034B1A7029462046FFF78BFF38BD8E81FF1F002304E001210E4AE2
:40094000D1540B44DBB2002BF8D000230B4A13700B4A13700B4A13700B4A13700B4A13700B4A13700B4A137003220B4B1A708022203B1A70704700BF3482FF1FAE81FF1F55
:40098000AC81FF1FAD81FF1FA981FF1F9481FF1FAB81FF1F2482FF1F28600040014B1878704700BFAD81FF1F00EB40008300024A13445878704700BFB881FF1F431EDBB2D5
:4009C000072B0BD8064B00011A18185C00F00F00537843EA0020023880B2704700207047FC5F0040431EDBB2072B3CD8F0B4074600EB4004A3001C4C2344DB889BB2C3F510
:400A000000739A4208D900EB400293002344DA8892B2C2F5007292B200EB4004A300124C2344DB7843EA1223104D04012E192B55D3B2737039B909E0CE5C3D010C4C665519
:400A400001339BB200E000239A42F5D8420002449300054A134400225A705A79D2B20001044B1A54F0BC7047B881FF1FFC5F004078600040FE5F0040431EDBB2072B0BD87A
:400A8000420002449300054A134400225A705A79D2B20001024B1A54704700BFB881FF1FFE5F004070B5D9B1054614460E46C8B1082819D8FFF782FFA04203D22846FFF738
:400AC0007DFF0446002305E02901094A525CF25401339BB2A342F7D32846FFF7CDFF04E0002402E0002400E00024204670BD00BF786000401D4B19781D4A13889BB20B4444
:400B00009BB2138000220FE01A494B681B78DBB2194883544B6801334B600132D2B20B889BB2013B9BB20B80124B1B889BB20BB1072AE9D90D4B1B78DBB2082B00D05AB197
:400B40000E490B7883F080030B700F210C4B197002210C4B197004E0022309490B7009490B70094B1A70014B1A7070472482FF1F2A82FF1F9C81FF1F00600040AA81FF1F57
:400B80009581FF1FAE81FF1F2582FF1F0222074B1A708022064B1A700F22064B1A700023054A1370054A137001207047AE81FF1FAA81FF1F9581FF1F2482FF1F2582FF1F74
:400BC00008B5FFF797FF08BD10B4194B197801F00F010239C9B2174A13889BB20B449BB21380002011E0144A5468144B1B5CDBB223705368013353600130C0B20139C9B2E4
:400C000013889BB2013B9BB213800B4B1B889BB20BB10029E7D10A4B19700A4A137883F0800313700B22084B1A7010BC704700BF296000402A82FF1F9C81FF1F00600040DD
:400C40002582FF1FAA81FF1F9581FF1F0623064A1370064A13708022054B1A700022054B1A700120704700BFAE81FF1F9581FF1FAA81FF1F2582FF1F064B9B6843B1054B2D
:400C80009A6810709A6804490988518000229A60704700BF9C81FF1F2A82FF1F08B5134B1A78D2B21A701B78DBB213F0800F02D00F4A137008BD0220FFF7DEFF0D4B1B78AA
:400CC00003F06003202B05D0402B06D043B900F073FD06E000F06CFF03E000F001FF00E0002010B90322024B1A7008BD286000409581FF1F0060004008B5094B1978094AB2
:400D000013889BB20B449BB213800022064B1A700120FFF7B1FF0322044B1A7008BD00BF2482FF1F2A82FF1FAE81FF1F9581FF1F08B50B4B1B78DBB2042B06D0062B07D007
:400D4000022B0BD1FFF7D8FF08BDFFF73DFF08BD0320FFF791FF0322024B1A7008BD00BFAE81FF1F9581FF1F08B50022044B1A700120FFF781FF0322024B1A7008BD00BF68
:400D8000AE81FF1F9581FF1F08B50B4B1B7813F0FF0F07D0084A137843F0800307490B70002313700022064B1A700120FFF764FF0322044B1A7008BD9481FF1F086000400B
:400DC000AE81FF1F9581FF1F08B5094B1B78DBB2042B06D0062B07D0022B07D1FFF7F0FE08BDFFF7C1FF08BDFFF7CEFF08BD00BFAE81FF1F08B5284B1B78DBB213F0100F05
:400E000048D013F0800F0CD003F00F03012B16D1FFF744FF214B1B7813F0800F11D1012312E013F0400F03D0FFF7CEFF01230BE013F0200F07D0FFF77BFF012304E00023B7
:400E400002E0002300E0002323B3134B1B7813F0800F1FD1124B1B78124A12781343124A13701278D2B2934214D10C4B1B78DBB2094A127812F0800F07D1084B1B78DBB21E
:400E8000054A1370137803F00F03044A1278D2B29342EAD108BD00BF286000409581FF1FAA81FF1F2582FF1F296000400022064B1A80064B9B682BB1044A916800230B706B
:400EC00092685380704700BF2A82FF1F9C81FF1F08B50F4B1B889BB213B9FFF757FE15E002220C4B1A7000220B4B1A70FFF7DEFF0A4AD179937943EA0123054A128892B295
:400F0000934201D2024A1380FFF7F4FD012008BD9C81FF1FAE81FF1FAA81FF1F0060004008B504220B4B1A7080220B4B1A70FFF7BDFF0A4AD179937943EA0123084A12880E
:400F400092B2934201D2064A13800B22054B1A70012008BDAE81FF1FAA81FF1F006000409C81FF1F9581FF1F0122094B1A700F3B9B7C084B1B7B03F00303934204D0054AD4
:400F8000D37B83F08003D3730122024B5A7370470B600040B881FF1F08B502220A4B1A700F3B93F82230094B1B7E03F00303012B04D0064AD37E83F08003D3760122034B93
:400FC0005A76FFF76FF808BD0B600040B881FF1F704700BF08B5FFF7AFFC08BD08B50C4B18780138C0B200F097F90A4B1B79DBB29A1C00EBC20042680749CB5C02EBC303E8
:401000005B68596A0B78054A1380516008BD00BFAD81FF1F006000409881FF1F9C81FF1F08B50E4B18780138C0B200F075F90C4B1B79DBB29A1C00EBC20042680949CB5C85
:4010400002EBC3035B68DB69597813F8022B42EA012205490A804B6008BD00BFAD81FF1F006000409881FF1F9C81FF1F10B50022194B1A80194B18780138C0B200F04CF940
:40108000174AD3781279D2B2911C00EBC10041680ABBDBB21348825C01EBC20149685A1ED2B2022A17D803F10053013B01EBC3000B4A9278D2B211F833309A420BD8406889
:4010C00002EB4202910042185468034B5C60415A198092689A6010BD9C81FF1FAD81FF1F006000409881FF1F08B55B4B1A79D2B21B7813F0800F4DD0574B5B78013B052B1E
:4011000000F28D80DFE803F0212B3B8B8B03524BDB78DBB2212B09D1FFF760FF4F4B1B889BB2002B7DD0FFF7D3FE08BD4A4BDB78DBB2222B77D1FFF773FF484B1B889BB2DB
:40114000002B72D0FFF7C4FE08BDFFF78FFF434B1B889BB2002B6AD0FFF7BAFE08BD002A67D13D4B9B7813F0FF0F64D13B4901230B803B4B1A444A60FFF7AAFE08BD002A1A
:401180005BD1364901230B80364B1A444A60FFF79FFE08BD304B5B78DBB20A2B0DD00B2B2FD0092B4BD1FFF761FF2C4B1B889BB2002B46D0FFF7B4FE08BD002A43D1264B68
:4011C0009B7813F0FF0F40D1234BDB78DBB224498B54895CC9B2244B9B5CDBB2994203D20021214B995409E01F4B9B5CDBB2012B04D91B4B9B5CDBB21B498B54FFF726FD7D
:4012000008BD22BB144B9B78DBB2012B21D8124B9B78DBB213498B54FFF718FD08BD002008BD002008BD002008BD002008BD002008BD002008BD002008BD002008BD002098
:4012400008BD002008BD002008BD002008BD002008BD002008BD00BF006000409C81FF1F2C82FF1F3482FF1F3082FF1F08B500F043FC08BD10B401233EE019461A010C24C5
:401280002148845403EB4300820020480244527912F0FF0F13D003EB430082001B480244127912F0800F04D01801194A024494700AE01801164A02440820907004E01801EE
:4012C000134A0244802090704800084482000F480244D488E4B208010B4901448C71D088C0F30720C871D088C0B20871D288C2F307224A710133DBB2082BBED9FF22054BCA
:401300001A7010BC704700BF70600040B881FF1FFC5F00400A600040074B1A78074B03EBC2035B681A7C824204D9C000103018444068704700207047A881FF1F7C200000DD
:40134000F8B5404B1B7813F0FF0F79D03D4B18780138C0B2FFF7E0FF047AC2683A4B1878C0B200236AE01178884264D13749095CC9B25578A9425ED1917801F07F01D6787D
:4013800006F00306DFF8C8E04D000D44AF000EEB07054FF0000C85F803C092F802C085F804C092F803C00EF807C097882F8192F90250002D0DDA012E01D1072700E00D2728
:4013C0004E000E44B500224E35446F7101266E700CE0012E01D1052700E009274E000E44B5001B4E35446F7100266E70DFF868E00F010EEB07060125B57001FA05F52944A4
:401400008D00134929440D89C5F307250EF807500D89EDB27570CE88F6B20E4D3D44AE71CE88C6F30726EE71CE88F6B22E71C988C1F30721697108320133DBB2A34292D3E8
:40144000F8BD00BFAD81FF1FA981FF1F9881FF1FB881FF1F70600040FC5F0040034B1A78034B03EBC2035868704700BFA881FF1F7C20000008B5084B18780138C0B2FFF7F0
:401480004BFF30B142681279023200EBC203586808BD002008BD00BFAD81FF1F2DE9F041002310E0684D5900CA189600AC190022AA55A270E2702281A272627034462C44D6
:4014C00062710133DBB2082BECD940B90AE000225E49CA545E49CA540133DBB200E00023002BF4D05B4B1B7813F0FF0F00F0A980584B18780138C0B2FFF70EFF4368DB79DB
:4015000013F0400F05D0544A137843F00103137004E0514A137803F0FE031370057A012464E0C16800235DE08A7802F07F02944255D1264604EB4407BA00434F3A44128933
:4015400092B28F88BA4207D204EB440E4FEA8E02DFF8F4E0724417810A783C4FBA5CD2B24F78BA423BD191F802C0DFF8DCE07200324497000EEB070282F804C0CA780EF8DD
:401580000720CA7802F0030291F90270002F13DA012A02D14FF0070801E04FF00D08DFF8A8E0720002EB060C4FEA8C07774487F8058001267E7012E0012A02D14FF0050886
:4015C00001E04FF00908DFF880E0720002EB060C4FEA8C07774487F8058000267E7008310133DBB2AB429FD30134E4B2082C98D9C06800220CE0837803F07F0310F8084BA9
:4016000003EB43039900104B19448C720132D2B2AA42F0D3FFF72EFF104B1860002101230BE0094D5A00D01884002C44E180228992B2114489B20133DBB2082BF1D9FFF77B
:4016400019FEBDE8F08100BFB881FF1F9881FF1F2882FF1FAD81FF1FAB81FF1FB481FF1F08B5154B1B7903F07F035A1ED2B2072A20D8590019448A0010490A44917841F0D3
:40168000010191700021D170517841F002015170127912F0800F05D01B01094A1A448D23937004E01B01064A1A4489239370FFF7CDFA08BD002008BD00600040B881FF1FDB
:4016C000FC5F0040264B1B7903F07F035A1ED2B2072A43D810B5590019448A0021490A44917801F0FE0191700021D17019017F241D484454517801F0FD015170127912F0B4
:40170000800F14D003EB43018A0016490A445278D2B2012A05D11B0102461A440C23937019E01B01104A1A440D23937013E003EB43018A000B490A445278D2B2012A05D1EA
:401740001B01094A1A440823937004E01B01064A1A4409239370FFF779FA10BD0020704700600040B881FF1FFC5F004010B50E4B1C79E4B20D4B18780138C0B2FFF7CCFD57
:4017800043681B799C4201D9012C0AD8084A135DDBB208490B55044B9B78DBB21355012010BD002010BD00BF00600040AD81FF1F9881FF1F2882FF1F10B59B4B1B78DBB27C
:4017C00000219A4A118013F0800F00F09C80964A5278D2B20A2A00F25F81DFE812F058005D015D015D015D015D010B005D0181005D0189008C4BDB78DBB2012B09D1FFF706
:401800002DFE4268894B5A6012221A80FFF760FB10BD854BDB78DBB2022B13D1824B9878FFF77AFD002800F0398142687F4B5A605A68D1785A68927842EA01221A80FFF798
:4018400047FB10BD784BDB78DBB2032B05D01BE00A7811440133DBB201E000237449724A9278D2B2934203D20A7812F0FF0FEFD10B7813F0FF0F00F013810B786B4A138036
:401880005160FFF725FB10BD00F092F910BD13F0030317D0022B40F0058164490B80624B1B7903F07F0303EB43039A00614B1A449278D2B2604B1A7000225A704B60FFF763
:4018C00007FB10BD594902230B805C4B1A78D2B2594B1A7000225A704B60FFF7F9FA10BD524B01221A80564A5A60FFF7F1FA10BD4E4A012313804C4B1B7952490B44536016
:40190000FFF7E6FA10BD484A5278013A0A2A00F2CB80DFE812F04C00C9007900C9000B00C900C900C9001300C90030003E4B9B78DBB2454A1370FFF789F910BD3A4B9B7852
:4019400003F0FF041BB1601EC0B2FFF7E5FC04B110B9002C40F0AA80394B1B78DBB29C4206D0374B1C700120384B1870FFF796FDFFF76CF910BDFFF7F9FE002800F098807A
:40198000294A1379DBB21279D2B231490A70314AD25CD2B22B49CB5CDBB29A4204D001222A4B1A70FFF7CCFCFFF750F910BD03F00303012B17D04BB1022B7BD11A4B9B78AE
:4019C00013F0FF0F78D1FFF77DFE10BD164B9B78DBB2012B72D1194A137803F0FD031370FFF734F910BD104B1B7913F0FF0F67D10D4B98781B79DBB21749CA5C22EA000236
:401A0000CA54FFF723F910BD03F00303012B32D023B3022B56D1044B9B7813F0FF0F53D1FFF71EFE10BD00BF006000409C81FF1F44210000B881FF1F9081FF1FAB81FF1F13
:401A4000AD81FF1F9881FF1F9481FF1FAC81FF1FA981FF1F2882FF1FB081FF1F1D4B9B78DBB2012B32D11C4A137843F002031370FFF7ECF810BD174B1B7913F0FF0F27D17D
:401A8000144B98781B79DBB21449CA5C22EA0002CA54FFF7DBF810BD002010BD002010BD002010BD002010BD002010BD002010BD002010BD002010BD002010BD002010BD0F
:401AC000002010BD002010BD002010BD002010BD002010BD00600040AB81FF1FB081FF1F044B1B7813F0800F01D0024B5B780020704700BF00600040024B1878C0F3801051
:401B0000704700BF8F45004001BE704708B5034B1B7A00FB03F000F03BF808BDD080FF1F70B504460E46074B1D681F2802D90020FFF7EAFF04F01F04103455F8240045F8FD
:401B4000246070BD08ED00E038B504460D46072902D90020FFF7D8FF1F2C02D90020FFF7D3FF04F01F0000F1604000F564406D01EDB2057038BD00BF014B1870704700BF92
:401B800075650040014B1878704700BF756500400230800803D000BF01380046FCD17047EFF3108072B6704780F31088704700BF08B5124B1B7803F00303012B02D0022BAD
:401BC00004D00FE00D4B1B79DBB20CE00B4B1B7903F07F0303EB43039A00094B1A44937ADBB200E00023074A1268D35C032B02D1FFF77AFA08BD002008BD00BF00600040D3
:401C0000B881FF1FB481FF1F4FF0FF0C1CEAD0521EBF1CEAD15392EA0C0F93EA0C0F6FD01A4480EA010C400218BF5FEA41211ED04FF0006343EA501043EA5111A0FB013101
:401C40000CF00040B1F5000F3EBF490041EAD3715B0040EA010062F17F02FD2A1DD8B3F1004F40EBC25008BF20F00100704790F0000F0CF0004C08BF49024CEA502040EAD0
:401C800051207F3AC2BFD2F1FF0340EAC250704740F400004FF00003013A5DDC12F1190FDCBF00F000407047C2F10002410021FA02F1C2F1200200FA02FC5FEA310040F1AE
:401CC000000053EA4C0308BF20EADC70704792F0000F00F0004C02BF400010F4000F013AF9D040EA0C0093F0000F01F0004C02BF490011F4000F013BF9D041EA0C018FE7C9
:401D00000CEAD15392EA0C0F18BF93EA0C0F0AD030F0004C18BF31F0004CD8D180EA010000F00040704790F0000F17BF90F0004F084691F0000F91F0004F14D092EA0C0FA1
:401D400001D142020FD193EA0C0F03D14B0218BF084608D180EA010000F0004040F0FE4040F40000704740F0FE4040F4400070474FF0FF0C1CEAD0521EBF1CEAD15392EA34
:401D80000C0F93EA0C0F69D0A2EB030280EA010C49024FEA402037D04FF0805343EA111143EA10130CF000408B4238BF5B0042F17D024FF4000C8B4224BF5B1A40EA0C00DB
:401DC000B3EB510F24BFA3EB510340EA5C00B3EB910F24BFA3EB910340EA9C00B3EBD10F24BFA3EBD10340EADC001B0118BF5FEA1C1CE0D1FD2A3FF650AF8B4240EBC2503E
:401E000008BF20F0010070470CF0004C4CEA50207F32C2BFD2F1FF0340EAC250704740F400004FF00003013A37E792F0000F00F0004C02BF400010F4000F013AF9D040EA5D
:401E40000C0093F0000F01F0004C02BF490011F4000F013BF9D041EA0C0195E70CEAD15392EA0C0F08D142027FF47DAF93EA0C0F7FF470AF084676E793EA0C0F04D14B02B4
:401E80003FF44CAF08466EE730F0004C18BF31F0004CCAD130F000427FF45CAF31F000437FF43CAF5FE700BF4FF0FF3C06E000BF4FF0010C02E000BF4FF0010C4DF804CDF1
:401EC0004FEA40024FEA41037FEA226C18BF7FEA236C11D001B052EA530C18BF90EA010F58BFB2EB030088BFC81738BF6FEAE17018BF40F0010070477FEA226C02D15FEA46
:401F0000402C05D17FEA236CE4D15FEA412CE1D05DF8040B704700BF844608466146FFE70FB5FFF7C9FF002848BF10F1000F0FBD4DF808EDFFF7F4FF0CBF012000205DF8BB
:401F400008FB00BF4DF808EDFFF7EAFF34BF012000205DF808FB00BF4DF808EDFFF7E0FF94BF012000205DF808FB00BF4DF808EDFFF7D2FF94BF012000205DF808FB00BFD5
:401F80004DF808EDFFF7C8FF34BF012000205DF808FB00BF42000ED2B2F1FE4F0BD34FF09E03B3EB126209D44FEA002343F0004323FA02F070474FF00000704712F1610F1F
:401FC00001D1420202D14FF0FF3070474FF00000704700BF0E4B70B51E460E4C0025E41AA410A54204D056F8253098470135F8E700F010F9084B094C1E46E41AA4100025DD
:40200000A54204D056F8253098470135F8E770BD2022000020220000202200002822000010B5431E0A44914204D011F8014B03F8014FF8E710BD03460244934202D003F879
:40204000011BFAE77047000000000000205100401000405100403000C0510040100000000140001000140140000800400140000A004C01400002005001402000010000000F
:402080008420000001000000002200000000000000000000010000009C20000001000000D421000002000000C020000001000000D020000000000000BC20000003000000F4
:4020C0000000810240000300000002024000030001000000D8200000000000000C21000000000000002100000000000000000000010000001821000001000000E62100004A
:40210000410000008082FF1FC482FF1F410000003C82FF1F3882FF1F26000600FF0901A10119012940150026FF0075089540910019012940150026FF00750895408100C01E
:4021400000000000040309041803470065006E006500720069006300200048004900440030035200650073006F00640079006E002000410063006F0075007300740069006F
:40218000630020004D00690078006500720073001C03560061006300750075006D0020004D006F00640075006C0065002403560061006300750075006D0020004D006F009A
:4021C000640075006C00650020004800490044000000000009022900010104803209040000020300000409211101000122260007058102400000070502024000000000009A
:40220000120100020000000895290F000100020300010000F8B500BFF8BC08BC9E4670474D00000009050000F8B500BFF8BC08BC9E4670472900000048220000C880FF1F5B
:4022400018000000E801000000000000010100000000E02EC05D00001800000000366E01000000000000000000000000000000000000000000000000000000000000000073
:40228000000000000000000000000000000000000000000000000000000000000000000000000000000000000000000000000000000000000000000000000000000000001E
:4022C00000000000000000000000000000000000000000000000000000000000000000000000000000000000000000000000000000000000000000000000000000000000DE
:40230000000000000000000000000000000000000000000000000000000000000000000000000000000000000000000000000000000000000000000000000000000000009D
:40234000000000000000000000000000000000000000000000000000000000000000000000000000000000000000000000000000000000000000000000000000000000005D
:020000040003F7
:0200000480007A
:400000000145004004520040016500403F140140311501404116014024170140011901400340014004410140024201400243014003470140064801400B490140024C014021
:4000400002500140015101407E020002180219827C40870D00020208040106080C040E08120713011C071E10201F3407361837014025410449FF4AFF4BFF4F015018520180
:4000800053015610580B590B5A0B5B0B5C995D995F016040624064406540668068806A806C806E80C065C104C9FFCAFFCBFFCD83CE03CF01D018D608DA0BDB04DD99DF0176
:4000C000E040E240E440E540E680E880EA80EC80EE800006020109020A01130218041A011B102002310240044240470248024C024F205E8064026A406B026E206F0178028F
:400100007C02861087018C409040940496409A019C029F02A002A102A240A401A710AE40C00DC209C408CC01D085D238D610D810DE81E240120127012E01300131013C10D6
:400140003E014061410449FF4AFF4BFF4D834E034F0150185809591B5A0B5C995D095F016040624064406540668068806A806C806E808201AE01B001B401BE01C025C10493
:40018000C5ECC720C823C9FFCAFFCBFFCD83CE03CF01D018D280D401D80BDA0BDB0BDC09DD99DF05E040E240E440E540E680E880EA80EC80EE8000020C01100217801A887D
:4001C0001C401F2027802F2040044240430246014702480249054F205002520159055A80710278037B027C027E047F02C008C210C481CA40D095D228D60BDEB9EE0AEE0A53
:4002000033803640CC305720A640A780D440A640A7A0A640A7A008080F40C20C2620A720AE40AF80C820EE505F80630887A08F04A720AE20D620D840E240E610EC40AC088B
:40024000AF4011011B01000A00020202020000004000000000000000C0000000000B0B000000000002000082820282000000000000000000000000000000000000000000AF
:40028000000000000000000000000000000000000000000000000000000000000000000000000000000000000000000000000000000000000000000000000000000000003E
:4002C00000000000000000000000000000000000000000000000000000000000000000000000000000000000000000000000000000000000000000000000000000000000FE
:4003000000000000000000000000000000000000000000000000000000000000000000000000000000000000000000000000000000000000000000000000000000000000BD
:40034000000000000000000000000000000000000000000000000000000000000000000000000000000000000000000000000000000000000000000000000000000000007D
:0200000490006A
:0400000000004005B7
:0200000490105A
:04000000BC90ACAF55
:0200000490303A
:020000009293D9
:0200000490402A
:4000000000000000000000000000000000000000000000000000000000000000000000000000000000000000000000000000000000000000000000000000000000000000C0
:400040000000000000000000000000000000000000000000000000000000000000000000000000000000000000000000000000000000000000000000000000000000000080
:400080000000000000000000000000000000000000000000000000000000000000000000000000000000000000000000000000000000000000000000000000000000000040
:4000C0000000000000000000000000000000000000000000000000000000000000000000000000000000000000000000000000000000000000000000000000000000000000
:0200000490501A
:0C00000000012E16106900012E23A2FC46
:00000001FF